:020000040800F2
:1000000000500020F52C0008552500085725000851
:10001000592500085B2500085D2500080000000048
:100020000000000000000000000000005F25000844
:100030006125000800000000632500086525000810
:100040003D2D00083D2D00083D2D00083D2D0008E8
:100050003D2D00083D2D00083D2D00083D2D0008D8
:100060003D2D00083D2D00083D2D00083D2D0008C8
:100070003D2D0008712500083D2D00083D2D00088C
:10008000852500083D2D00083D2D00089925000814
:10009000A92500083D2D00083D2D00083D2D000834
:1000A0003D2D00083D2D00083D2D00083D2D000888
:1000B0003D2D00083D2D00083D2D00083D2D000878
:1000C0003D2D00083D2D00083D2D00083D2D000868
:1000D0003D2D00083D2D0008C9250008DD2500083C
:1000E0003D2D00083D2D00083D2D000800000000BA
:1000F0000000000000000000000000000000000000
:0C01000000000000000000005FF808F1A3
:10010C0010B5054C237833B9044B13B10448AFF345
:10011C0000800123237010BD74000020000000003B
:10012C00DC35000808B5034B1BB103490348AFF39A
:10013C00008008BD0000000078000020DC350008BD
:10014C00034613F8012B002AFBD1181A013870470B
:10015C0010B504460E4B18784FF47A73B3FBF0F3DA
:10016C000C4A1068B0FBF3F000F038FC68B90F2CA7
:10017C0001D901200AE0002221464FF0FF3000F0A7
:10018C00EDFB034B5C60002000E0012010BD00BFC4
:10019C00000000200C00002008B5074A136843F04B
:1001AC0010031360032000F0C7FB0020FFF7D0FF03
:1001BC0002F07AF9002008BD00200240034A1168C1
:1001CC00034B1B780B441360704700BFE800002002
:1001DC0000000020014B1868704700BFE8000020A9
:1001EC0038B50446FFF7F6FF0546B4F1FF3F02D0E1
:1001FC00044B1B781C44FFF7EDFF401BA042FAD3C5
:10020C0038BD00BF00000020F0B44B6901229A40B9
:10021C000468D4F8003223F47C534D6A43EA052376
:10022C0043F00103C4F800320568D5F81C42D343EF
:10023C001C40C5F81C42CC69C4B90568D5F80C4201
:10024C001C40C5F80C42CF688D8806684C6945EA9D
:10025C000745483446F834508F680D8804684E6959
:10026C0045EA0745483604EBC6046560CC69012CA9
:10027C001ED08C69002C35D10568D5F804421C4081
:10028C00C5F804420C69002C33D10468D4F814521C
:10029C002B40C4F814320B6A012B31D00268D2F80F
:1002AC00003223F00103C2F800320020F0BC70478A
:1002BC000568D5F80C421443C5F80C420F688D88BC
:1002CC0006684C6945EA0745483446F834508F684F
:1002DC008D8904684E6945EA0745483604EBC60427
:1002EC006560C6E70568D5F804421443C5F80442B6
:1002FC00C8E70468D4F814321343C4F81432CAE7BC
:10030C000168D1F81C321A43C1F81C22C6E7002838
:10031C0000F0968038B5044690F83C3003B30223C5
:10032C0084F83C302268136823F0020313602268BF
:10033C00136843F001031360FFF74CFF0546236875
:10034C005A6812F0010F10D1FFF744FF401B0A2826
:10035C00F5D9032084F83C00002384F83D3038BDE7
:10036C0080F83D3001F004FCD9E75A6812F0010F17
:10037C005BD0A269012A43D00022E169012941D056
:10038C0022F04002216A01293FD022F02002616A4A
:10039C0001293DD022F01002A16A01293BD022F0A4
:1003AC000802E16A012939D022F00402196821F00F
:1003BC00FC010A431A60A368E268134322691343E1
:1003CC00626913436268013A21681343CB61226866
:1003DC00136823F001031360FFF7FCFE0546236846
:1003EC005A6812F0010F1CD0FFF7F4FE401B0A28CC
:1003FC00F5D9032084F83C00002384F83D30AEE7A7
:10040C008022BAE742F04002BCE742F02002BEE78D
:10041C0042F01002C0E742F00802C2E742F00402C8
:10042C00C4E75B6813F0010F04D0042384F83C305C
:10043C00012094E700202064012384F83C308EE7EF
:10044C00012070470A4699B990F83C30DBB2222B58
:10045C007CD090F83C30DBB2422B79D090F83C3019
:10046C00DBB2622B76D090F83C30DBB2722B73D0BF
:10047C00012A16D090F83D30012B75D010B4012311
:10048C0080F83D30002A41D190F83C30DBB2322B61
:10049C0034D0522B36D0122B19D0222380F83C307A
:1004AC0018E090F83C30DBB2322B57D090F83C304F
:1004BC00DBB2522B54D090F83C30DBB2622B51D0D3
:1004CC0090F83C30DBB2722BD4D10220704742231F
:1004DC0080F83C30002101640468636943F40F43E5
:1004EC0043F00103636180F83D1042B30268536925
:1004FC0043F050035361002010BC7047622380F816
:10050C003C30E7E7722380F83C30E3E790F83C306E
:10051C00DBB2222B0BD0422B0DD0122B03D032236B
:10052C0080F83C30D6E7522380F83C30D2E7622387
:10053C0080F83C30CEE7722380F83C30CAE7026882
:10054C00536943F00A0353610846D5E7022070470C
:10055C00022070470220704702207047022070472B
:10056C00022070470220704702207047704708B580
:10057C000268536923F00103536190F83C30DBB2FD
:10058C00122B0CD090F83C30DBB2522B14D0722BC7
:10059C0016D0422B09D0012380F83C3008E00268C9
:1005AC00536923F40F435361ECE7222380F83C306A
:1005BC00FFF7DCFF002008BD322380F83C30F7E762
:1005CC00622380F83C30F3E7704710B50C460029E5
:1005DC0078D1436B016804F11B0212018A5802F0B6
:1005EC0004029A60002A6FD1016804F11B02120107
:1005FC008A58520D1A60016804F11B0212018958C5
:10060C0001F00201D96001681144496801F00F0141
:10061C0019611C6201680A445268C2F30722DA614C
:10062C00016822011144D1F8B811197501681144FF
:10063C00D1F8B811090A597501681144D1F8B811EB
:10064C00090C997501681144D1F8B811090ED975C6
:10065C0001681144D1F8BC11197601681144D1F824
:10066C00BC11090A597601681144D1F8BC11090C66
:10067C00997601680A44D2F8BC21120EDA765CBB7A
:10068C0003682022DA600268536923F00A0353617D
:10069C0090F83C30DBB2222B01D0322B04D1026813
:1006AC00536923F40F43536174BB90F83C30DBB2B5
:1006BC00622B21D0722B23D0422B16D0012380F831
:1006CC003C3015E0836B85E7016804F11B021201D5
:1006DC008A58D2085A608EE7036820221A61026891
:1006EC00536923F050035361D2E7122380F83C3056
:1006FC00FFF76AFF002010BD322380F83C30F7E78B
:10070C00522380F83C30F3E790F83C30DBB2622B9C
:10071C000BD0722B0DD0522B03D0012380F83C3020
:10072C00E6E7122380F83C30E2E7222380F83C30E5
:10073C00DEE7422380F83C30DAE7000070B504466F
:10074C000268D168536911F0100F09D003F0080347
:10075C00002B00F0A6801023D3604FF4007500E04E
:10076C00002522681169536903F0400311F0100F42
:10077C0004D01BB145F480651023136123685A69BA
:10078C0012F0010F28D09E689968674A0A40996850
:10079C0021F06F4121F47E01090C09046348B04338
:1007AC0005D06148824202D0614A914214D19968C5
:1007BC009A6802F400729B6803F0010311F0020FB7
:1007CC0002D10AB9002B6ED02046FFF7D0FE22686A
:1007DC009168584B0B4393602368DA685B6903F0AC
:1007EC00020312F0030F01D0002B5FD123681A69AA
:1007FC005B6903F0100312F0030F01D0002B5AD1E8
:10080C00236C2B432364236898695A6902F4807221
:10081C00596901F4004110F0010F05D022B119B152
:10082C00226C42F00102226498695A6902F4007247
:10083C00596901F4004110F0020F05D022B119B131
:10084C00226C42F00202226498695A6902F48062B6
:10085C00596901F4004110F0040F05D022B119B10F
:10086C00226C42F00402226498695A6902F4006214
:10087C00596901F4004110F0700F32D08AB381B382
:10088C009A6902F07002302A2ED019D9502A30D031
:10089C00602A33D0402A20D1226C42F040022264DC
:1008AC001BE000255DE745F4006590E7002120463C
:1008BC00FFF78BFE9AE701212046FFF786FE9FE7A4
:1008CC00102A06D0202A08D1226C42F01002226491
:1008DC0003E0226C42F0080222649A6922F0700252
:1008EC009A61236C7BB970BD226C42F020022264A9
:1008FC00F3E7226C42F080022264EEE7226C42F4B1
:10090C0080722264E9E7236804225A60012384F888
:10091C003C302268536923F40F4323F05B0353618B
:10092C00204601F0CBF9DEE70001000801000004CD
:10093C000000011009050100074AD36823F4E063A5
:10094C001B041B0C000200F4E060184340F0BF6075
:10095C0040F40030D060704700ED00E030B4174B2D
:10096C00DB68C3F30223C3F10704042C28BF04245F
:10097C001D1D062D18D9033B4FF0FF3505FA04F465
:10098C0021EA0401994005FA03F322EA030319430F
:10099C0000280BDB0901C9B200F1604000F5614091
:1009AC0080F8001330BC70470023E5E700F00F001F
:1009BC000901C9B2024B1954F4E700BF00ED00E085
:1009CC0014ED00E000F01F02400901239340024A9D
:1009DC0042F82030704700BF00E100E00138B0F170
:1009EC00807F0AD2064B5860064AF02182F8231009
:1009FC000020986007221A6070470120704700BFE2
:100A0C0010E000E000ED00E0042805D0054A136872
:100A1C0023F0040313607047024A136843F0040385
:100A2C001360704710E000E0704708B5FFF7FCFF5B
:100A3C0008BD70B4066CC56B0124B4406C600468CE
:100A4C0063604368102B05D0036899600368DA6013
:100A5C0070BC704703689A600368D960F8E70000BF
:100A6C00002830D010B403460168184A0A441848CC
:100A7C00A0FB0202120992001A64164ADA630222DF
:100A8C0083F82120086820F47F5020F030005A6849
:100A9C009C682243DC6822431C6922435C69224324
:100AAC009C692243DC69224302430A60002098625D
:100ABC00D862186358639863012283F8212083F865
:100ACC00200010BC70470120704700BFF8FFFDBF2D
:100ADC00CDCCCCCC0000024038B590F82040012C95
:100AEC0032D0012480F8204090F82140012C04D011
:100AFC00002380F82030022038BD0446022084F800
:100B0C0021000020A0632568286820F001002860DF
:100B1C002046FFF78EFFE36A5BB12268136843F04F
:100B2C000E0313602268136843F001031360002066
:100B3C00E2E72268136823F0040313602268136849
:100B4C0043F00A031360EDE70220D5E7F0B482B05E
:100B5C0000263546A1E0002C59D0012C00D1CE68DE
:100B6C00FF2B68D88446FF2B68D8AC00DCF800203B
:100B7C000F27A74022EA070206FA04F42243CCF816
:100B8C0000204A6812F0805F00F086805E4A94690B
:100B9C0044F001049461926902F001020192019AFD
:100BAC00AC08A71C594A52F8272005F00307BF00D0
:100BBC004FF00F0C0CFA07FC22EA0C0C544A904232
:100BCC0042D002F5806290427FD002F58062904262
:100BDC007DD002F58062904234D0042235E04D4F36
:100BEC00BC4214D00BD94C4FBC4210D007F5803707
:100BFC00BC420CD0A7F58017BC42B1D107E0A7F5D9
:100C0C008017BC4203D007F58037BC42A8D18C6852
:100C1C007CB1012C08D042610826A1E7CE680836C9
:100C2C009EE7CE680C369BE70261082698E7002603
:100C3C0096E7042694E700F1040C94E7A5F1080468
:100C4C00A40093E7032200E00022BA4042EA0C021F
:100C5C0002342E4F47F824204A6812F4803F38D0D3
:100C6C002E4C22681A4322604A6812F4003F36D098
:100C7C002A4C62681A4362604A6812F4801F34D0AE
:100C8C00264CA2681A43A2604A6812F4001F32D0A4
:100C9C00224CE2681343E36001350F2D31D8012259
:100CAC00AA400B6813409A42F6D14C68122CB8D06B
:100CBC0095D8022CB2D07FF64EAF032CB7D0112CA6
:100CCC007FF44EAFCE6804364AE70122BDE702221C
:100CDC00BBE7124C226822EA03022260C4E70F4CE5
:100CEC00626822EA03026260C6E70C4CA26822EA40
:100CFC000302A260C8E7094CE26822EA0303E3603E
:100D0C00CAE702B0F0BC704700100240000001407E
:100D1C0000080140000021100000311000040140C7
:100D2C0012B909040161704701617047C3685940E9
:100D3C00C160704782B0084B1B68084AA2FB0323B2
:100D4C005B0A00FB03F0019000BF019B5A1E01924D
:100D5C00002BF9D102B070470C000020D34D62106B
:100D6C0070B582B00446036813F0010F2CD0AB4B66
:100D7C005B6803F00C03042B1DD0A84B5B6803F0DD
:100D8C000C03082B12D06368B3F5803F41D0002BC5
:100D9C0055D103F1804303F504331A6822F48032F1
:100DAC001A601A6822F480221A6037E09B4B5B6849
:100DBC0013F4803FE7D0994B1B6813F4003F03D02A
:100DCC006368002B00F0AE81236813F0020F76D01D
:100DDC00924B5B6813F00C0F5FD0904B5B6803F089
:100DEC000C03082B54D02369002B00F08A808C4B09
:100DFC0001221A60FFF7EEF90546884B1B6813F0C9
:100E0C00020F75D1FFF7E6F9401B0228F5D9032034
:100E1C008BE1824A136843F480331360636843B3F5
:100E2C00FFF7D8F905467D4B1B6813F4003FCBD177
:100E3C00FFF7D0F9401B6428F5D9032075E1B3F511
:100E4C00A02F09D0754B1A6822F480321A601A68E8
:100E5C0022F480221A60E1E703F18043A3F53C33CE
:100E6C001A6842F480221A601A6842F480321A60BE
:100E7C00D4E7FFF7AFF90546684B1B6813F4003F46
:100E8C00A2D0FFF7A7F9401B6428F5D903204CE149
:100E9C00624B5B6813F4803FA5D1604B1B6813F069
:100EAC00020F04D02369012B01D001203DE15B4AE4
:100EBC00136823F0F803616943EAC10313602368E4
:100ECC0013F0080F32D0A369002B5BD0554B0122D5
:100EDC001A60FFF77FF90546504B5B6A13F0020F5F
:100EEC0021D1FFF777F9401B0228F5D903201CE12B
:100EFC004A4A136823F0F803616943EAC10313609B
:100F0C00DDE7474B00221A60FFF764F90546434BB7
:100F1C001B6813F0020FD2D0FFF75CF9401B0228BC
:100F2C00F5D9032001E10120FFF704FF236813F03A
:100F3C00040F00F09780394BDB6913F0805F33D1DD
:100F4C00364BDA6942F08052DA61DB6903F0805388
:100F5C000193019B0125344B1B6813F4807F25D032
:100F6C00E368012B36D0002B4CD103F1804303F501
:100F7C0004331A6A22F001021A621A6A22F004027D
:100F8C001A622CE0274B00221A60FFF723F9054662
:100F9C00224B5B6A13F0020FC8D0FFF71BF9401B02
:100FAC000228F5D90320C0E00025D4E71E4A1368B7
:100FBC0043F480731360FFF70DF906461A4B1B6858
:100FCC0013F4807FCCD1FFF705F9801B6428F5D989
:100FDC000320AAE0114A136A43F001031362E36889
:100FEC0073B3FFF7F7F806460C4B1B6A13F0020FAE
:100FFC0037D1FFF7EFF8801B41F288339842F3D9D1
:10100C00032092E0052B11D0044B1A6A22F0010246
:10101C001A621A6A22F004021A62E0E70010024017
:10102C00000042428004424200700040414B1A6A68
:10103C0042F004021A621A6A42F001021A62CEE706
:10104C00FFF7C8F806463B4B1B6A13F0020F08D09B
:10105C00FFF7C0F8801B41F288339842F3D9032084
:10106C0063E0E5B9E369002B5ED0324A526802F0C6
:10107C000C02082A5BD0022B17D02F4B00221A60CF
:10108C00FFF7A8F804462B4B1B6813F0007F47D0E2
:10109C00FFF7A0F8001B0228F5D9032045E0254AEC
:1010AC00D36923F08053D361DCE7234B00221A6011
:1010BC00FFF790F805461F4B1B6813F0007F06D016
:1010CC00FFF788F8401B0228F5D903202DE0236A8E
:1010DC00B3F5803F1AD017494B6823F47413226A76
:1010EC00606A024313434B60134B01221A60FFF7F3
:1010FC0071F804460F4B1B6813F0007F0ED1FFF7FD
:10110C0069F8001B0228F5D903200EE0094A536840
:10111C0023F40033A1680B435360DCE7002004E0A8
:10112C00002002E0012000E0002002B070BD012090
:10113C00FBE700BF001002406000424210B487B0D1
:10114C00164C94E80F000DF1180C0CE90F00238AD3
:10115C00ADF80430124B5B6803F00C02082A1AD16C
:10116C00C3F38342624412F8102C13F4803F05D170
:10117C000C4800FB02F007B010BC7047084B5B68D2
:10118C00C3F34043634413F8143C074800FB02F0DC
:10119C00B0FBF3F0EFE70448EDE700BFF4350008CF
:1011AC000010024000093D0000127A00594B1B68E8
:1011BC0003F007038B420CD2564A136823F0070343
:1011CC000B431360136803F007038B4201D001201B
:1011DC00704770B5036813F0020F06D04E4A53687F
:1011EC0023F0F0038468234353600C4605460368E0
:1011FC0013F0010F52D04368012B23D0022B28D0BF
:10120C00454A126812F0020F00F0828042494A6887
:10121C0022F0030213434B60FEF7DCFF06466B68BB
:10122C00012B1DD0022B2AD03B4B5B6813F00C0F0B
:10123C0034D0FEF7CFFF801B41F288339842F3D9AC
:10124C00032064E0344A126812F4003FDED101201E
:10125C005DE0314A126812F0007FD7D1012056E0D0
:10126C002D4B5B6803F00C03042B17D0FEF7B2FF79
:10127C00801B41F288339842F2D9032047E0264B79
:10128C005B6803F00C03082B08D0FEF7A3FF801B50
:10129C0041F288339842F2D9032038E01D4B1B6889
:1012AC0003F00703A3420CD91A4A136823F007036F
:1012BC0023431360136803F00703A34201D00120FA
:1012CC0025E02B6813F0040F06D0134A536823F45F
:1012DC00E063E9680B4353602B6813F0080F07D0E9
:1012EC000D4A536823F46053296943EAC1035360E0
:1012FC00FFF724FF084B5B68C3F30313074AD35C67
:10130C00D840074B18600020FEF722FF002070BD6C
:10131C000120FCE7002002400010024008360008C3
:10132C000C000020014B1868704700BF0C00002017
:10133C0008B5FFF7F7FF044B5B68C3F30223034ABE
:10134C00D35CD84008BD00BF00100240183600081E
:10135C0008B5FFF7E7FF044B5B68C3F3C223034AEE
:10136C00D35CD84008BD00BF0010024018360008FE
:10137C000268D36823F0C003D360202380F839308F
:10138C0070470268D36823F49073D3600268536982
:10139C0023F001035361202380F83A30704700009A
:1013AC002DE9F84305460268136923F44053C168DC
:1013BC000B43136183680269134342691343016849
:1013CC00CA6822F4B05222F00C021343CB600268BC
:1013DC00536923F4407381690B4353610268594B81
:1013EC009A4257D0FFF7A4FF00EB800000EB80007F
:1013FC006C68A400B0FBF4F4534FA7FB04346409ED
:10140C002601FFF795FF00EB800000EB80006C6875
:10141C00A400B0FBF4F9FFF78BFF00EB800000EBAE
:10142C0080006C68A400B0FBF4F4A7FB04346409DE
:10143C004FF0640808FB149424013234A7FB0434E5
:10144C00640904F0F0043444FFF772FF00EB8000F1
:10145C0000EB80006E68B600B0FBF6F6FFF768FF95
:10146C0000EB800000EB80006B689B00B0FBF3F09E
:10147C00A7FB0030400908FB10684FEA081808F178
:10148C003208A7FB0837C7F343172B6827449F6024
:10149C00BDE8F883FFF75CFF00EB800000EB8000F9
:1014AC006C68A400B0FBF4F4274FA7FB0434640968
:1014BC002601FFF74DFF00EB800000EB80006C680D
:1014CC00A400B0FBF4F9FFF743FF00EB800000EB46
:1014DC0080006C68A400B0FBF4F4A7FB043464092E
:1014EC004FF0640808FB149424013234A7FB043435
:1014FC00640904F0F0043444FFF72AFF00EB800089
:10150C0000EB80006E68B600B0FBF6F6FFF720FF2C
:10151C0000EB800000EB80006B689B00B0FBF3F0ED
:10152C00A7FB0030400908FB10684FEA081808F1C7
:10153C003208A7FB0837C7F343172B6827449F6073
:10154C00A6E700BF003801401F85EB512DE9F041A3
:10155C0005460F4616469846069C2B681B6837EACC
:10156C0003030CBF01230023B3421DD1B4F1FF3F91
:10157C00F3D02CB1FEF72EFEA0EB0800A042ECD964
:10158C002A68D36823F4D073D3602A68536923F094
:10159C0001035361202385F8393085F83A30002354
:1015AC0085F83830032000E00020BDE8F08158B306
:1015BC0010B5044690F839300BB3242384F8393035
:1015CC002268D36823F40053D3602046FFF7E8FE6B
:1015DC002268136923F4904313612268536923F042
:1015EC002A0353612268D36843F40053D36000206C
:1015FC00E063202384F8393084F83A3010BD80F849
:10160C00383001F085F9D8E7012070472DE9F04119
:10161C0082B01E4690F83930DBB2202B55D10446EF
:10162C000D469046002955D0002A55D090F83830F8
:10163C00012B53D0012380F838300023C3632123BE
:10164C0080F83930FEF7C6FD0746A4F82480A4F8CC
:10165C00268010E000963B46002280212046FFF7B2
:10166C0075FF00283CD12B882268C3F30803536014
:10167C002369C3B90235E38C9BB2B3B1E38C013B54
:10168C009BB2E384A368B3F5805FE3D000963B463E
:10169C00002280212046FFF759FF18BB2A782368C7
:1016AC005A600135E7E70135E5E700963B46002235
:1016BC0040212046FFF74AFF0346A8B9202284F8B0
:1016CC003920002284F8382000E00223184602B0AA
:1016DC00BDE8F0810123F9E70123F7E70223F5E7E1
:1016EC000323F3E70323F1E70323EFE72DE9F041AD
:1016FC0082B01E4690F83A30DBB2202B5AD1044609
:10170C000D469046002959D0002A59D090F838300F
:10171C00012B57D0012380F838300023C3632223D8
:10172C0080F83A30FEF756FD0746A4F82C80A4F852
:10173C002E801DE000963B46002220212046FFF71C
:10174C0005FF002840D1236933B923685B68C3F3D4
:10175C00080325F8023B0BE023685B68DBB225F835
:10176C00013B05E023685B6803F07F032B700135B8
:10177C00E38D9BB2BBB1E38D013B9BB2E385A368C8
:10178C00B3F5805FD6D000963B4600222021204640
:10179C00FFF7DCFED0B92369002BE3D123685B682B
:1017AC002B700135E4E7202384F83A30002084F8CC
:1017BC00380000E0022002B0BDE8F0810120FAE719
:1017CC000120F8E70220F6E70320F4E70320F2E714
:1017DC0030B583B090F83A40E4B2202C3DD10029CA
:1017EC003ED0002A3ED090F83830012B3CD0134626
:1017FC000A460446012180F8381082628385002550
:10180C00C563222180F83A10416B18488862616BDD
:10181C001748C862616B17480863616B4D63216898
:10182C000431606BFFF758F9019523681A6801922F
:10183C005A680192019A84F83850DA6842F480723E
:10184C00DA602268536943F00103536122685369DB
:10185C0043F040035361284600E0022003B030BD42
:10186C000120FBE70120F9E70220F7E787180008C1
:10187C00C7180008D3180008704708B5436A0268F7
:10188C00126812F0200F13D10022DA851968CA6889
:10189C0022F48072CA6019684A6922F001024A6116
:1018AC0019684A6922F040024A61202283F83A20E2
:1018BC001846FFF7E1FF08BD704708B5406AFFF70F
:1018CC00FBFF08BD704710B5446A23685A6994F849
:1018DC003930DBB2212B10D023685A6902F0400258
:1018EC0094F83A30DBB2222B11D0E36B43F01003A7
:1018FC00E3632046FFF7E6FF10BD02F08002002AEA
:10190C00EAD00023E3842046FFF732FDE4E7002A07
:10191C00EBD00023E3852046FFF733FDE5E700001D
:10192C0008B50268D36843F01003D3600A681368E3
:10193C0043F0020313600A68136823F00403136076
:10194C004FF480720149FFF743FF08BDEC01002002
:10195C0070B5C56B03681A6812F0020F29D0254ABE
:10196C00934214D01432934224D01432934223D095
:10197C001432934223D01432934223D01432934224
:10198C0002D04FF0007203E04FF4001200E002228C
:10199C000446194B5A604FF480720021174801F02D
:1019AC00F8F923685A6892B2C2F5807292B2FF2A93
:1019BC000BD970BD2022EBE74FF40072E8E74FF42F
:1019CC000052E5E74FF40032E2E70D4E31460B488A
:1019DC0001F0D4F9226C3F239340AB602368DE60A6
:1019EC0023684FF480725A602268136843F0010335
:1019FC001360DEE70800024000000240EC0000200B
:101A0C00EC01002003681A6812F0100F00D1704727
:101A1C0000B583B00A460146186801905B680193D3
:101A2C001068036823F0010303601046FFF790FF72
:101A3C0003B05DF804FB000008B501210148FFF775
:101A4C0075F908BD00080140B0F5B47F00D37047AC
:101A5C0038B50D460446FFF7EFFF2B88054820F8F4
:101A6C0034306B8800EBC4004380AB888380EB88F8
:101A7C00C38038BDEC02002008B502210148FFF7F5
:101A8C0055F908BD0008014008B510210148FFF7C1
:101A9C004DF908BD0008014008B519491948FFF770
:101AAC003FFF19491948FFF73BFF00F0ABF800F076
:101ABC00EBF800F0C7F800230AE0154A002122F8E1
:101ACC00331002EBC30251809180D18001339BB261
:101ADC00B3F5B47FF1D3FFF7AFFFFFF7CDFFFFF7FF
:101AEC00D3FF4FF47A70FEF77BFB00F03BFCFEF764
:101AFC0071FB084B18604FF47A729A8008BD00BFD6
:101B0C00FC0E002004100020400F0020840F002049
:101B1C00EC020020300E002008B5FEF75BFB014BF9
:101B2C00186008BD2C0E002008B50E480E4B036043
:101B3C000923436000238360C3604FF4A022026139
:101B4C00436183610122C261036243628362C362A7
:101B5C00FEF7DDFB00B908BD4521044800F05AFB37
:101B6C00F9E700BFB80E00200064004030360008D2
:101B7C000268214B9A4200D0704730B587B003F50C
:101B8C00D633DA6942F00072DA61DB6903F0007374
:101B9C000193019B4FF480730293002403940494EB
:101BAC00164D02A92846FEF7D1FF4FF4007302939D
:101BBC00022303930323059302A92846FEF7C6FFCD
:101BCC000F4A536823F4C04343F0E06343F480436B
:101BDC005360224621461320FEF7C0FE1320FEF769
:101BEC00F1FE224621461420FEF7B8FE1420FEF723
:101BFC00E9FE07B030BD00BF00640040000C01409E
:101C0C000000014000B58BB00023009301930293B8
:101C1C0003930493059306930123079308930E23D0
:101C2C00099369460548FEF7EFFA10B90BB05DF859
:101C3C0004FBA221024800F0EDFAF7E7B80E0020F1
:101C4C003036000808B500210448FEF7FBFB00B94C
:101C5C0008BDBE21024800F0DDFAF9E7B80E0020FD
:101C6C003036000840F22133036000234360836068
:101C7C000361C36104E0C218002111750133DBB2AA
:101C8C00072BF8D97047000010B50A4C2046FFF717
:101C9C00E9FF094B04F124021A635C634FF44073AF
:101CAC0063620123A36200232363E362082363635B
:101CBC0010BD00BF90000020B80E002010B50446E7
:101CCC0003681022DA600021FEF7BCFB2368202297
:101CDC00DA60002284F83C2021684B6943F40F43FE
:101CEC0043F05B034B6184F83D2010BD00B583B01D
:101CFC000E4B5A6942F001025A615B6903F0010311
:101D0C000193019B002211460D20FEF727FE0D20AA
:101D1C00FEF758FE002211461020FEF71FFE102081
:101D2C00FEF750FE03B05DF804FB00BF001002404C
:101D3C002DE9F04188B0214B9A6942F020029A615A
:101D4C009A6902F020020192019A9A6942F0040207
:101D5C009A619A6902F004020292029A9A6942F01C
:101D6C0008029A619B6903F008030393039BDFF855
:101D7C005480002249F613714046FEF7D1FF104CF7
:101D8C00002239212046FEF7CBFF49F6137304934A
:101D9C0001270597002606960225079504A94046BB
:101DAC00FEF7D4FE3923049305970696079504A9EC
:101DBC002046FEF7CBFE08B0BDE8F08100100240D3
:101DCC00000C01400008014008B5234B1B78712B17
:101DDC0000D008BD204B5B79FF2BFAD11E4B9B79B1
:101DEC00FF2BF6D11C4BDB79FF2BF2D1FFF74CFE0E
:101DFC00194B5B78052BECD8DFE803F0030A1118BC
:101E0C001F26164B00201870587000F0C7FAE0E738
:101E1C00124B01201870587000F0C0FAD9E70F4B24
:101E2C0002201870587000F0B9FAD2E70B4B03205F
:101E3C001870587000F0B2FACBE7084B04201870F9
:101E4C00587000F0ABFAC4E7044B052018705870BA
:101E5C0000F0A4FABDE700BFEC000020D000002089
:101E6C0008B5AF4B1B78013B042B00F2BB81DFE8BC
:101E7C0013F005004500A4003D01AE01A84B9B7872
:101E8C007BB1012B14D0022B19D0032B1ED0052BA8
:101E9C0023D0062B2BD0A24BFF229A70FFF7CCFD40
:101EAC00A0E1A04BB3F8A211002000F0B5FA99E123
:101EBC009C4BB3F8A211002000F0DEFA92E1994B92
:101ECC00B3F83613012000F0BFFA8BE1954BB3F851
:101EDC004813002000F0B8FA84E1914BDB78002B1A
:101EEC0040F080819049002000F06EFA7AE18D4B31
:101EFC00B3F85013022000F08FFA73E1884B9B78F3
:101F0C00CBB1012B1ED0022B23D0032B28D0052BB9
:101F1C002DD0062B35D0072B49D1824BB3F8463345
:101F2C00032B35D0022B38D0012B3BD00021084697
:101F3C0000F0A2FA56E17B4BB3F8A211042000F09A
:101F4C006BFA4FE1774BB3F8A211012000F094FA31
:101F5C0048E1744BB3F83613002000F075FA41E1F8
:101F6C00704BB3F84E13012000F06EFA3AE16C4B53
:101F7C00DB78002B40F036816B49002000F024FA0E
:101F8C0030E1684BB3F85013002000F045FA29E11A
:101F9C006421002000F070FA24E14321002000F0BD
:101FAC006BFA1FE12221002000F066FA1AE15C4B6B
:101FBC00FF229A70FFF740FD14E1594B9B78CBB18F
:101FCC00012B1ED0022B23D0032B28D0042B4DD059
:101FDC00052B58D0062B61D0072B66D0082B72D05E
:101FEC00092B75D00A2B7AD04D4BFF229A70FFF734
:101FFC0023FDF7E04B4BB3F8AE11002000F024FAB0
:10200C00F0E0484BB3F8B011012000F01DFAE9E004
:10201C00444BB3F8AA11022000F016FAE2E0414B4F
:10202C00B3F83033042B0DD0012B10D0032B13D06D
:10203C00022B16D0002B40F0D5803C49002000F03C
:10204C00C3F9CFE03A49002000F0BEF9CAE03949A3
:10205C00002000F0B9F9C5E03749002000F0B4F9D0
:10206C00C0E03649002000F0AFF9BBE02D4B9B8956
:10207C0023B13349012000F0A7F9B3E03149012025
:10208C0000F0A2F9AEE0274BB3F8A0112E4BA3FB46
:10209C0001314909032000F0D7F9A3E0214BB3F833
:1020AC003613042000F0D0F99CE01E4BB3F8163523
:1020BC0023B92649022000F087F993E02149022038
:1020CC0000F082F98EE00021022000F0A5F989E0F1
:1020DC00144BB3F85410002000F09EF982E0114B21
:1020EC00B3F85610012000F097F97BE00C4B9B786D
:1020FC0073B3012B33D0022B38D0032B3DD0042BE0
:10210C0042D0052B47D0062B4CD0072B51D0082B97
:10211C0056D0034BFF229A70FFF78EFC62E000BF93
:10212C00D0000020EC020020403600086436000885
:10213C00443600084C360008543600085C3600085B
:10214C006C360008783600081F85EB517C36000889
:10215C002C4BB3F8B018002000F05EF942E0294B8C
:10216C00B3F8B218052000F057F93BE0254BB3F853
:10217C00B418062000F050F934E0224BB3F8F81AEA
:10218C00012000F049F92DE01E4BB3F8FA1A042097
:10219C0000F042F926E01B4BB3F8FC1A072000F0C4
:1021AC003BF91FE0174BB3F8001B022000F034F989
:1021BC0018E0144BB3F8021B032000F02DF911E0CA
:1021CC00104BB3F8041B082000F026F90AE00E4B64
:1021DC00DB78012B0BD0022B0ED00B4B58781870E0
:1021EC0000F0DCF8084A93780133937008BD074976
:1021FC00002000F0E9F8F5E70549002000F0E4F8CC
:10220C00F0E700BFEC020020D0000020843600086C
:10221C0088360008FEE7000000B591B00122069256
:10222C004FF480330793002108910A9202220D92F9
:10223C000E934FF4E0130F9306A8FEF791FD08BB25
:10224C000F23019302210291002303934FF4806228
:10225C000492059301A8FEF7A9FFB8B9FFF762F83D
:10226C000C4BA3FB00308009FEF7B8FB0420FEF7F3
:10227C00CBFB002211464FF0FF30FEF76FFB11B085
:10228C005DF804FB9D210448FFF7C4FFAB21024815
:10229C00FFF7C0FFD34D62109C36000808B5FDF760
:1022AC007BFFFFF7B9FFFFF743FDFFF71FFDFFF7BC
:1022BC003BFC00F0D3FA00F0EFFA00F00BFBFFF759
:1022CC00EBFB00F0B3FAFFF7CBFDFFF725FCF8E7CB
:1022DC0038B5054600E05B680B4B1B681A6812F0BA
:1022EC00200FF8D12846FDF72BFF074C322382B282
:1022FC0029462046FFF78AF9322303220349204658
:10230C00FFF784F938BD00BF840F002008000020BF
:10231C0000B583B002A9002341F8043D64230422D4
:10232C000F48FFF7E3F99DF80430012B03D0002090
:10233C0003B05DF804FB9DF80530FF2B01D00020A5
:10234C00F6E79DF80630FF2B01D00020F0E79DF852
:10235C000730FF2B01D00020EAE70120E8E700BF9F
:10236C00840F002010B50A48FFF7B2FF0948FFF7A9
:10237C00AFFFFFF7CDFF04460748FFF7A9FFFFF7B4
:10238C00C7FF14B110B1012000E0002010BD00BF48
:10239C0028370008AC360008B436000800B585B004
:1023AC00002301930293ADF80C300246054901A8B5
:1023BC0000F0F8FC01A8FFF78BFFFFF7A9FF05B0B1
:1023CC005DF804FBBC36000870B59AB006460C46A6
:1023DC0032252A4600210DA800F0DBFC2A460021FC
:1023EC00684600F0D6FC002305E0E15C1AAA1A440A
:1023FC0002F8681C0133132BF7DD6B463246054996
:10240C000DA800F0CFFC0DA8FFF762FFFFF780FFCF
:10241C001AB070BDC436000800B585B00023009317
:10242C0001930293CDF80B300B46024605496846E2
:10243C0000F0B8FC6846FFF74BFFFFF769FF05B0EB
:10244C005DF804FBE036000800B585B0002300936E
:10245C0001930293CDF80B300B46024605496846B2
:10246C0000F0A0FC6846FFF733FFFFF751FF05B003
:10247C005DF804FBF836000800B585B00023009326
:10248C0001930293CDF80B300B4602460549684682
:10249C0000F088FC6846FFF71BFFFFF739FF05B01B
:1024AC005DF804FBA437000800B583B0244B9A698F
:1024BC0042F001029A619A6902F001020092009ABC
:1024CC00DA6942F08052DA61DB6903F080530193E0
:1024DC00019B0320FEF730FA002211466FF00B002F
:1024EC00FEF73CFA002211466FF00A00FEF736FAAE
:1024FC00002211466FF00900FEF730FA0022114657
:10250C006FF00400FEF72AFA002211466FF0030068
:10251C00FEF724FA002211466FF00100FEF71EFAB6
:10252C00002211464FF0FF30FEF718FA054A5368A7
:10253C0023F0E06343F00073536003B05DF804FBD9
:10254C0000100240000001407047FEE7FEE7FEE786
:10255C00FEE770477047704708B5FDF72FFEFEF792
:10256C0064FA08BD08B502490248FFF7F1F908BD45
:10257C00840F0020400F002008B502490248FFF7E5
:10258C00E7F908BD04100020FC0E002008B5024835
:10259C00FEF7D4F808BD00BFB80E002010B5064CED
:1025AC002046FEF7CBF8616B31F8140BFFF74CFAB1
:1025BC00FFF748FB10BD00BFB80E002008B502495C
:1025CC000248FFF71FFA08BDFC0E00200410002083
:1025DC0008B503490348FFF715FAFFF7F5FB08BDEB
:1025EC00400F0020840F00200F4B1A6842F00102AC
:1025FC001A6059680D4A0A405A601A6822F08472AF
:10260C0022F480321A601A6822F480221A605A6806
:10261C0022F4FE025A604FF41F029A60044B4FF0F2
:10262C0000629A60704700BF001002400000FFF883
:10263C0000ED00E010B582B04FF482740DE03B4821
:10264C0030F8341000EBC40042888388C0880090B6
:10265C00204600F0CDFA0134A4B2B4F5847FEED359
:10266C0040F209140DE0314830F8341000EBC4008E
:10267C0042888388C0880090204600F0B9FA013463
:10268C00A4B2B4F5867FEED94FF487740DE02748D9
:10269C0030F8341000EBC40042888388C088009066
:1026AC00204600F0A5FA0134A4B2B4F5897FEED32C
:1026BC0040F213140DE01D4830F8341000EBC40048
:1026CC0042888388C0880090204600F091FA01343B
:1026DC00A4B2B4F58B7FEED94FF48C740DE0134893
:1026EC0030F8341000EBC40042888388C088009016
:1026FC00204600F07DFA0134A4B2B4F58E7FEED3FF
:10270C0040F21D140DE0094830F8341000EBC40001
:10271C0042888388C0880090204600F069FA013412
:10272C00A4B2B4F5907FEED902B010BDEC0200203B
:10273C0010B582B03C4B198800200090034602462D
:10274C0000F056FA33240DE0374830F8341000EB23
:10275C00C40042888388C0880090204600F048FA64
:10276C000134A4B2362CEFD92F4CB4F85015B4F870
:10277C005225B4F85435B4F856050090AA2000F050
:10278C0037FAB4F85815B4F85A25B4F85C35B4F8DF
:10279C005E050090AB2000F02BFAB4F80815B4F8E5
:1027AC000A25B4F80C35B4F80E050090A12000F001
:1027BC001FFAB4F80815B4F80A25B4F80C35B4F8B7
:1027CC000E050090A22000F013FA9C240DE0164890
:1027DC0030F8341000EBC40042888388C088009025
:1027EC00204600F005FA0134A4B29F2CEFD90E4814
:1027FC00018942898389C0890090012000F0F8F991
:10280C0065240DE0084830F8341000EBC400428811
:10281C008388C0880090204600F0EAF90134A4B205
:10282C006B2CEFD902B010BDEC02002008B5094AA0
:10283C001168094B1B685B1A9288934202D8FFF708
:10284C0077FF08BDFFF7F6FEFDF7C4FC014B1860DF
:10285C00F5E700BF300E00202C0E002008B50B4809
:10286C000B4B03604FF4E133436000238360C36080
:10287C000361082242618361C361FEF798FE00B9CF
:10288C0008BD47210348FFF7C5FCF9E7C40F00203A
:10289C00003801400438000808B50B480B4B0360A6
:1028AC004FF4E133436000238360C36003610C2267
:1028BC0042618361C361FEF77AFE00B908BD5A21FB
:1028CC000348FFF7A7FCF9E7041000200044004080
:1028DC000438000808B50B480B4B03604FF4E13388
:1028EC00436000238360C36003610C2242618361F7
:1028FC00C361FEF75CFE00B908BD6D210348FFF70C
:10290C0089FCF9E7840F00200048004004380008D7
:10291C0070B588B00368584A934208D00446574AA9
:10292C0093422AD0564A934266D008B070BD554B9C
:10293C009A6942F480429A619B6903F48043019343
:10294C00019B4023049302230593032307934E4CCE
:10295C0004A92046FEF7FAF880230493002305937C
:10296C00069304A92046FEF7F1F8484A536843F051
:10297C00E06343F004035360D7E7424BDA6942F457
:10298C000032DA61DB6903F400330293029B042307
:10299C00049302230593032307933D4E04A9304669
:1029AC00FEF7D4F80823049300250595069504A991
:1029BC003046FEF7CBF83748374B036045608560EF
:1029CC008023C3600561456185614FF48053C36109
:1029DC00FEF746F858B92F4B63635C620022114630
:1029EC002620FDF7BBFF2620FDF7ECFF9DE7B42169
:1029FC002A48FFF70FFCEEE7224BDA6942F48022FB
:102A0C00DA61DB6903F480230393039B4FF4806347
:102A1C00049302230593032307931B4E04A930460A
:102A2C00FEF794F84FF40063049300250595069582
:102A3C0004A93046FEF78AF819481A4B0360456022
:102A4C0085608023C360056145618561C561FEF7C2
:102A5C0007F858B9124B63635C62002211462720B9
:102A6C00FDF77CFF2720FDF7ADFF5EE7E2210B4869
:102A7C00FFF7D0FBEEE700BF0038014000440040F8
:102A8C000048004000100240000C014000000140D2
:102A9C0000080140FC0E00206C00024004380008C5
:102AAC00400F0020300002402DE9F04188B007466D
:102ABC000E467E238DF81F3010238DF81E30002516
:102ACC008DF81D50484C05AB94E8070003C31A70F1
:102ADC00E368ADF810301B0C8DF812308DF80F50E8
:102AEC008DF80E50FF2E7DDC06F10E05102302939F
:102AFC00002307E008AAD01810F80C4C02982044C8
:102B0C0002900133072BF5DD002307E008AA1A44D5
:102B1C0012F8101C029A0A4402920133012BF5DDC3
:102B2C00002304E0FA5C0298104402900133B34293
:102B3C00F8DB9DF80830C3F1FF0302932B4C6423A0
:102B4C0001220DF11F012046FEF760FD05F47F43C5
:102B5C000DF1200848F81C3D642301224146204613
:102B6C00FEF754FDEDB20195642301224146204647
:102B7C00FEF74CFD642301220DF11E012046FEF7E9
:102B8C0045FD642301220DF11D012046FEF73EFD9B
:102B9C006423082205A92046FEF738FD642302228F
:102BAC0004A92046FEF732FD642301220DF10F012A
:102BBC002046FEF72BFD642301220DF10E01204669
:102BCC00FEF724FD6423B2B239462046FEF71EFD03
:102BDC006423012202A92046FEF718FD012008B04B
:102BEC00BDE8F0810020FAE7203600080410002030
:102BFC000FB410B5A8B02AAB53F8042B27930023BD
:102C0C0009E02799081D2790088828A901EB4301A2
:102C1C0021F80C0C0133032BF3DD2F4B1B78032B0A
:102C2C0012D8DFE803F002192D438DF8142012128C
:102C3C008DF8152025AB03CBCDF81600CDF81A1066
:102C4C000A2105A8FFF730FF0020FDF7C9FA28B0CC
:102C5C00BDE8104004B07047BDF89430BDF8961034
:102C6C00BDF89800BDF89A400294019000911B4960
:102C7C0005A800F097F8014605A8FFF715FFE3E754
:102C8C00BDF89430BDF89610BDF89800BDF89A4088
:102C9C00029401900091124905A800F083F8642376
:102CAC0082B205A90F48FEF7B1FCCDE7138828AC1A
:102CBC0024F88C3D25AB03CBCDF81600CDF81A10BB
:102CCC000A231B788DF81E3064230B2221460548FD
:102CDC00FEF79CFCB8E700BFD800002014380008B1
:102CEC002438000804100020002103E00B4B5B5833
:102CFC00435004310A480B4B42189A42F6D30A4A05
:102D0C0002E0002342F8043B084B9A42F9D3FFF748
:102D1C006BFC00F00FF8FFF7C1FA70477038000831
:102D2C0000000020740000207400002048100020D7
:102D3C00FEE7000070B500250C4E0D4CA41BA41032
:102D4C00A54209D100F044FC00250A4E0A4CA41BF4
:102D5C00A410A54205D170BD56F825309847013511
:102D6C00EEE756F8253098470135F2E76838000849
:102D7C0068380008683800086C38000810B5431E25
:102D8C000A44914200D110BD11F8014B03F8014FD8
:102D9C00F7E703460244934200D1704703F8011B46
:102DAC00F9E700000EB46FF0004100B59CB01DAB0C
:102DBC0002900690079104910848094953F8042B96
:102DCC000591006802A9019300F066F80022029BAD
:102DDC001A701CB05DF804EB03B0704710000020B3
:102DEC000802FFFF2DE9F0478E6882469E420C4692
:102DFC009046994637D88A8912F4906F31D00223C5
:102E0C00256809696F1A656905EB450595FBF3F5AE
:102E1C0009F101033B449D4238BF1D46530530D593
:102E2C00294600F02DFB064650B90C234FF0FF301D
:102E3C00CAF80030A38943F04003A381BDE8F087B2
:102E4C003A462169FFF79AFFA38923F4906343F074
:102E5C008003A38126613E4426604E466561ED1BCE
:102E6C00A5604E4500D94E4632464146206800F0DA
:102E7C00A1FAA36800209B1BA36023681E44266054
:102E8C00DCE72A4600F056FB06460028E2D1216911
:102E9C00504600F0A9FAC8E72DE9F04F1D468B8982
:102EAC009DB01F0680460C4616460FD50B696BB9B4
:102EBC00402100F0E5FA2060206128B90C23C8F805
:102ECC0000304FF0FF30C8E04023636100230993CA
:102EDC0020238DF8293030234FF0010B8DF82A3048
:102EEC00039537463D4615F8013B0BB1252B3ED1DA
:102EFC00B7EB060A0BD05346324621464046FFF745
:102F0C0071FF013000F0A480099B534409933B7876
:102F1C00002B00F09D8000234FF0FF32CDE90523FC
:102F2C00049307938DF853301A932F46052217F804
:102F3C00011B504800F030FA049BD0B9D90644BFAD
:102F4C0020228DF853201A0744BF2B228DF85320D2
:102F5C002A782A2A15D02F4600200A25079A3946A6
:102F6C0011F8013B303B092B4DD9B8B10FE02F467E
:102F7C00B8E7404A3D46801A0BFA00F0184304901B
:102F8C00D3E7039A111D12680391002A01DB079203
:102F9C0004E0524243F00203079204933B782E2B39
:102FAC000CD17B782A2B33D1039B02371A1D1B685B
:102FBC000392002BB8BF4FF0FF3305932E4D032225
:102FCC003978284600F0E8F938B14023401B03FA61
:102FDC0000F0049B013703430493397806222748F9
:102FEC007E1C8DF8281000F0D7F9002838D0244B1F
:102FFC0013BB039B073323F0070308330393099B8D
:10300C004B4409936DE705FB023201200F46A6E7FE
:10301C0000230A25194601370593384610F8012B71
:10302C00303A092A03D9002BC8D00591C6E705FB15
:10303C00012101230746F0E703AB00932246114B15
:10304C0004A94046AFF30080B0F1FF3F8146D6D1D2
:10305C00A3895B063FF535AF09981DB0BDE8F08F2D
:10306C0003AB00932246074B04A9404600F082F8BC
:10307C00EAE700BF343800083A3800083E38000848
:10308C0000000000F12D00082DE9F04791461F4685
:10309C008A680B6906469342B8BF1346C9F80030DC
:1030AC0091F843200C46DDF8208012B10133C9F8A9
:1030BC0000302368990642BFD9F800300233C9F8B2
:1030CC000030256815F0060507D104F1190AE368EC
:1030DC00D9F800209B1AAB4229DC94F843302268C3
:1030EC00003318BF012392062ED404F14302394653
:1030FC003046C047013021D02368E56803F0060351
:10310C00042B18BF0025D9F800204FF0000908BF88
:10311C00AD1AA368226908BF25EAE5759342C4BFBE
:10312C009B1AED181A344D451AD1002008E00123E2
:10313C00524639463046C047013003D14FF0FF307C
:10314C00BDE8F0870135C2E73020E11881F8430073
:10315C005A1C94F845102244023382F84310C4E7F9
:10316C000123224639463046C0470130E6D009F1EA
:10317C000109D8E72DE9F04301F1430C0C46097E17
:10318C0085B06E291746064698460C9A00F0B38017
:10319C0022D8632936D00AD8002900F0B9805829E2
:1031AC0000F0838004F1420584F8421032E0642977
:1031BC0001D06929F6D120681368050603F10401D2
:1031CC002AD51B681160002B03DA2D225B4284F890
:1031DC0043206F480A2239E0732900F09D8008D8FB
:1031EC006F2920D07029DDD1236843F020032360A0
:1031FC0003E0752917D07829D4D17823654884F851
:10320C00453055E0136804F14205191D1B68116027
:10321C0084F8423001238CE01B6810F0400F1160E1
:10322C0018BF1BB2CFE713682568181D106028065D
:10323C0001D51B6802E06806FBD51B886F2914BFFB
:10324C000A2208225248002184F843106568002D98
:10325C00A560C0F29580216821F004012160002B4B
:10326C003DD1002D40F08E806546082A0BD1236895
:10327C00DB0708D5236962689A42DEBF302305F864
:10328C00013C05F1FF35ACEB05032361CDF8008063
:10329C003B4603AA21463046FFF7F6FE01304DD1DE
:1032AC004FF0FF3005B0BDE8F083394884F8451085
:1032BC00136821681D1D1B6815600A060BD5CA070B
:1032CC0044BF41F0200121601BB9226822F020028A
:1032DC0022601022B7E74D0648BF9BB2EFE7654668
:1032EC00B3FBF2F102FB1133C35C05F8013D0B4655
:1032FC000029F5D1B9E713682568181D61691060BC
:10330C0028061B6801D5196002E06A06FBD51980F6
:10331C00002365462361B9E71368191D11601D6808
:10332C0062680021284600F037F808B1401B606045
:10333C0063682361002384F84330A7E723692A4696
:10334C0039463046C0470130AAD023689B0713D4B6
:10335C00E068039B9842B8BF1846A3E701234A468E
:10336C0039463046C04701309AD00135E368039A9C
:10337C009B1AAB42F2DCEBE7002504F11909F5E7E7
:10338C00002BACD1037804F1420584F842306CE791
:10339C00453800085638000810B5C9B202449042AE
:1033AC00034601D1002303E01C7801308C42F6D196
:1033BC00184610BD884210B501EB020307D8421E17
:1033CC0099420AD011F8014B02F8014FF8E78342F9
:1033DC00F5D98118D21AD34200D110BD13F8014D82
:1033EC0001F8014DF7E7000038B50546002943D038
:1033FC0051F8043C0C1F002BB8BFE41800F0D0F8B7
:10340C001E4A1368104633B9636014602846BDE841
:10341C00384000F0C6B8A3420BD921686218934219
:10342C0001BF1A685B685218226063600460EDE7A4
:10343C0013465A680AB1A242FAD919685818A04220
:10344C000BD120680144581882421960DED11068F3
:10345C005268014419605A60D8E702D90C232B60DA
:10346C00D4E7206821188A4201BF116852680918F4
:10347C00216062605C60C9E738BD00BFDC000020E1
:10348C0070B5CD1C25F0030508350C2D38BF0C2567
:10349C00002D064601DBA94203D90C233360002022
:1034AC0070BD00F07DF8214A1468214691B9204C7A
:1034BC0023681BB9304600F063F82060294630467B
:1034CC0000F05EF8431C24D10C233046336000F02E
:1034DC0068F8E4E70B685B1B18D40B2B0FD90B6057
:1034EC00CC18CD50304600F05CF804F10B00231DD5
:1034FC0020F00700C31AD3D05A42E250D0E74B68F1
:10350C008C4216BF636013600C46EBE70C464968AF
:10351C00CCE7C41C24F00304A04205D0211A304689
:10352C0000F02EF80130CFD02560DBE7DC00002066
:10353C00E0000020F8B5074614460E4621B9BDE858
:10354C00F8401146FFF79CBF22B9FFF74DFF254607
:10355C002846F8BD00F026F8A0420FD22146384686
:10356C00FFF78EFF05460028F2D031462246FFF7C2
:10357C0005FC31463846FFF737FFE9E73546E7E704
:10358C0038B50023054C05460846236000F012F8B8
:10359C00431C02D1236803B12B6038BD44100020BA
:1035AC007047704751F8043C181F002BBCBF0B58D8
:1035BC00C0187047044A05491368002B08BF0B4616
:1035CC001844106018467047E40000204810002092
:1035DC00F8B500BFF8BC08BC9E467047F8B500BFF4
:0835EC00F8BC08BC9E467047C4
:1035F40002030405060708090A0B0C0D0E0F101030
:1036040001020000000000000000000001020304A9
:103614000607080900000000010203040013A200C9
:1036240041932DE300000000000000002E2E2F53D4
:1036340072632F63616E2E63000000004F4E000022
:10364400456E6475726F0000416363656C00000031
:103654004175746F78780000536B6964706164001D
:10366400526576657273650041505053204552523D
:103674004F5200004F4B00004552524F5200000081
:10368400474C560042534500536B696470656400AF
:1036940044657520506175002E2E2F5372632F6D73
:1036A40061696E2E63000000626B636D643D3100DE
:1036B40070616765203000007061676520256400D3
:1036C4007425642E7478743D222573220000000052
:1036D400676574207425642E747874006E25642ED6
:1036E40076616C3D25640000676574206E25642E48
:1036F40076616C007825642E76616C3D256400004B
:103704007025642E7069633D25640000676574202C
:103714006225642E747874006225642E7478743D76
:103724002225732200000000676574206325642E3F
:1037340076616C006325642E76616C3D256400001F
:1037440067657420627425642E76616C0000000045
:10375400627425642E76616C3D256400676574206F
:10376400627425642E747874000000006274256409
:103774002E7478743D22257322000000676574203E
:103784007A25642E76616C007A25642E76616C3D10
:1037940025640000676574206A25642E76616C00D8
:1037A4006A25642E76616C3D25640000676574208B
:1037B4007225642E76616C007225642E76616C3DF0
:1037C4002564000067657420766125642E76616C3B
:1037D40000000000766125642E76616C3D2564004E
:1037E40067657420766125642E7478740000000087
:1037F400766125642E7478743D22257322000000BE
:103804002E2E2F5372632F75736172742E63000012
:10381400257509257509257509257509257500007E
:1038240025750925750925750925750925750A0064
:10383400232D302B2000686C4C0065666745464795
:103844000030313233343536373839414243444518
:103854004600303132333435363738396162636487
:043864006566000095
:043868003101000822
:04386C000D01000842
:103870000100000010000000FFFFFF0000A24A044A
:103880001400002000000000000000000000000004
:103890000000000000000000000000000000000028
:1038A0000000000000000000000000000000000018
:1038B0000000000000000000000000000000000008
:1038C00000000000000000000000000000000000F8
:1038D00000000000000000000000000000000000E8
:0438E00000000000E4
:0400000508002CF5CE
:00000001FF
